{
  "_format": "hh-sol-artifact-1",
  "contractName": "ApeMarket",
  "sourceName": "contracts/ApeMarket.sol",
  "abi": [
    {
      "inputs": [
        {
          "internalType": "uint256",
          "name": "_apeId",
          "type": "uint256"
        }
      ],
      "name": "buyApe",
      "outputs": [],
      "stateMutability": "payable",
      "type": "function"
    },
    {
      "inputs": [
        {
          "internalType": "address",
          "name": "token",
          "type": "address"
        },
        {
          "internalType": "uint256",
          "name": "tokenId",
          "type": "uint256"
        },
        {
          "internalType": "uint256",
          "name": "price",
          "type": "uint256"
        }
      ],
      "name": "createApe",
      "outputs": [],
      "stateMutability": "nonpayable",
      "type": "function"
    },
    {
      "inputs": [
        {
          "internalType": "uint256",
          "name": "_apeId",
          "type": "uint256"
        }
      ],
      "name": "getApe",
      "outputs": [
        {
          "components": [
            {
              "internalType": "address payable",
              "name": "seller",
              "type": "address"
            },
            {
              "internalType": "address payable",
              "name": "owner",
              "type": "address"
            },
            {
              "internalType": "address",
              "name": "token",
              "type": "address"
            },
            {
              "internalType": "uint256",
              "name": "tokenId",
              "type": "uint256"
            },
            {
              "internalType": "uint256",
              "name": "price",
              "type": "uint256"
            },
            {
              "internalType": "bool",
              "name": "sold",
              "type": "bool"
            }
          ],
          "internalType": "struct ApeMarket.Ape",
          "name": "",
          "type": "tuple"
        }
      ],
      "stateMutability": "view",
      "type": "function"
    },
    {
      "inputs": [],
      "name": "getApeLength",
      "outputs": [
        {
          "internalType": "uint256",
          "name": "",
          "type": "uint256"
        }
      ],
      "stateMutability": "view",
      "type": "function"
    }
  ],
  "bytecode": "0x60806040526000805534801561001457600080fd5b50610a8c806100246000396000f3fe60806040526004361061003f5760003560e01c80631b5c93db14610044578063595fc1c91461006d578063a7e8e6d014610098578063acca9068146100d5575b600080fd5b34801561005057600080fd5b5061006b600480360381019061006691906106da565b6100f1565b005b34801561007957600080fd5b506100826102a5565b60405161008f91906108cb565b60405180910390f35b3480156100a457600080fd5b506100bf60048036038101906100ba9190610729565b6102ae565b6040516100cc91906108b0565b60405180910390f35b6100ef60048036038101906100ea9190610729565b61040c565b005b60006040518060c001604052803373ffffffffffffffffffffffffffffffffffffffff1681526020013373ffffffffffffffffffffffffffffffffffffffff1681526020018573ffffffffffffffffffffffffffffffffffffffff16815260200184815260200183815260200160001515815250905080600160008054815260200190815260200160002060008201518160000160006101000a81548173ffffffffffffffffffffffffffffffffffffffff021916908373ffffffffffffffffffffffffffffffffffffffff16021790555060208201518160010160006101000a81548173ffffffffffffffffffffffffffffffffffffffff021916908373ffffffffffffffffffffffffffffffffffffffff16021790555060408201518160020160006101000a81548173ffffffffffffffffffffffffffffffffffffffff021916908373ffffffffffffffffffffffffffffffffffffffff160217905550606082015181600301556080820151816004015560a08201518160050160006101000a81548160ff02191690831515021790555090505060008081548092919061029a90610987565b919050555050505050565b60008054905090565b6102b6610636565b600160008381526020019081526020016000206040518060c00160405290816000820160009054906101000a900473ffffffffffffffffffffffffffffffffffffffff1673ffffffffffffffffffffffffffffffffffffffff1673ffffffffffffffffffffffffffffffffffffffff1681526020016001820160009054906101000a900473ffffffffffffffffffffffffffffffffffffffff1673ffffffffffffffffffffffffffffffffffffffff1673ffffffffffffffffffffffffffffffffffffffff1681526020016002820160009054906101000a900473ffffffffffffffffffffffffffffffffffffffff1673ffffffffffffffffffffffffffffffffffffffff1673ffffffffffffffffffffffffffffffffffffffff16815260200160038201548152602001600482015481526020016005820160009054906101000a900460ff1615151515815250509050919050565b600060016000838152602001908152602001600020905080600401543414610469576040517f08c379a000000000000000000000000000000000000000000000000000000000815260040161046090610890565b60405180910390fd5b8060020160009054906101000a900473ffffffffffffffffffffffffffffffffffffffff1673ffffffffffffffffffffffffffffffffffffffff166323b872dd8260010160009054906101000a900473ffffffffffffffffffffffffffffffffffffffff163384600301546040518463ffffffff1660e01b81526004016104f293929190610859565b600060405180830381600087803b15801561050c57600080fd5b505af1158015610520573d6000803e3d6000fd5b505050508060000160009054906101000a900473ffffffffffffffffffffffffffffffffffffffff1673ffffffffffffffffffffffffffffffffffffffff166108fc349081150290604051600060405180830381858888f1935050505015801561058e573d6000803e3d6000fd5b5060018160050160006101000a81548160ff021916908315150217905550338160010160006101000a81548173ffffffffffffffffffffffffffffffffffffffff021916908373ffffffffffffffffffffffffffffffffffffffff160217905550338160000160006101000a81548173ffffffffffffffffffffffffffffffffffffffff021916908373ffffffffffffffffffffffffffffffffffffffff1602179055505050565b6040518060c00160405280600073ffffffffffffffffffffffffffffffffffffffff168152602001600073ffffffffffffffffffffffffffffffffffffffff168152602001600073ffffffffffffffffffffffffffffffffffffffff16815260200160008152602001600081526020016000151581525090565b6000813590506106bf81610a28565b92915050565b6000813590506106d481610a3f565b92915050565b6000806000606084860312156106ef57600080fd5b60006106fd868287016106b0565b935050602061070e868287016106c5565b925050604061071f868287016106c5565b9150509250925092565b60006020828403121561073b57600080fd5b6000610749848285016106c5565b91505092915050565b61075b81610951565b82525050565b61076a81610909565b82525050565b610779816108f7565b82525050565b610788816108f7565b82525050565b6107978161091b565b82525050565b60006107aa6014836108e6565b91506107b5826109ff565b602082019050919050565b60c0820160008201516107d66000850182610761565b5060208201516107e96020850182610761565b5060408201516107fc6040850182610770565b50606082015161080f606085018261083b565b506080820151610822608085018261083b565b5060a082015161083560a085018261078e565b50505050565b61084481610947565b82525050565b61085381610947565b82525050565b600060608201905061086e6000830186610752565b61087b602083018561077f565b610888604083018461084a565b949350505050565b600060208201905081810360008301526108a98161079d565b9050919050565b600060c0820190506108c560008301846107c0565b92915050565b60006020820190506108e0600083018461084a565b92915050565b600082825260208201905092915050565b600061090282610927565b9050919050565b600061091482610927565b9050919050565b60008115159050919050565b600073ffffffffffffffffffffffffffffffffffffffff82169050919050565b6000819050919050565b600061095c82610963565b9050919050565b600061096e82610975565b9050919050565b600061098082610927565b9050919050565b600061099282610947565b91507fffffffffffffffffffffffffffffffffffffffffffffffffffffffffffffffff8214156109c5576109c46109d0565b5b600182019050919050565b7f4e487b7100000000000000000000000000000000000000000000000000000000600052601160045260246000fd5b7f496e73756666696369656e74207061796d656e74000000000000000000000000600082015250565b610a31816108f7565b8114610a3c57600080fd5b50565b610a4881610947565b8114610a5357600080fd5b5056fea2646970667358221220c35a928d04b9a34484a7a68717a554ec6bd20d879f4dc90838d98cb29592cb9264736f6c63430008040033",
  "linkReferences": {},
  "deployedLinkReferences": {}
}